:1000000075C084C083C082C081C080C07FC07EC0F4
:100010007DC07DC07BC07AC079C078C077C076C013
:1000200075C000002100420063008400A500C600E6
:10003000E700080029004A006B008C00AD00CE00EC
:10004000EF00000010002000300040005000600071
:10005000700081009100A100B100C100D100E10059
:10006000F100CEED6666CC0D000B03730083000C2F
:10007000000D0008111F8889000EDCCC6EE6DDDD66
:10008000D999BBBB67636E0EECCCDDDC999FBBB925
:10009000333E5555AA2AAA555555F00555AA02AA28
:1000A000550555F05555AA2AAA555555900555AAF6
:1000B00002AA550555905555AA2AAA555555805559
:1000C00055AA2AAA555555100555AA02AA550555EF
:1000D000800555AA02AA550555105555AA2AAA55B4
:1000E0005555A00555AA02AA550555A011241FBEB5
:1000F000CFE5D2E0DEBFCDBF20E0A0E6B0E001C09A
:100100001D92A43FB207E1F7B9D50FC679CF1F9270
:100110000F920FB60F9211248F93EF93FF9380915C
:10012000620081110FC08091F200883458F4E09190
:10013000F20081E08E0F8093F200F0E08CB1E7597D
:10014000FF4F808380916200882351F0809161008D
:10015000811106C08CB18093F10081E08093610031
:10016000FF91EF918F910F900FBE0F901F901895F8
:100170005D9BFECF8CB9089582E088BF12BE83BF1D
:10018000089513BE12BE82E088BF089580E488BF40
:100190001DBC1CBC8DE08EBD08951EBC1DBC1CBCCE
:1001A00080E488BF089585BB8FEF84BB82E08150D7
:1001B000F1F7939882E08150F1F7939A82E08150B1
:1001C000F1F714BA8FEF85BB089514BA8FEF85BB92
:1001D00082E08150F1F7949882E08150F1F783B387
:1001E000949A92E09150F1F7089585BB8FEF84BB0C
:1001F00082E08150F1F7979882E08150F1F7979A69
:1002000082E08150F1F714BA8FEF85BB0895929880
:1002100088E99AE30197F1F796988CED95E00197BC
:10022000F1F7969A8CED95E00197F1F7089518BAD9
:100230001BBA929A089518BA1BBA8AE0B4DF84E018
:100240008150F1F7089518BA1BBA80E0ACCF9091B5
:100250006800923020F418BA90E69BBBA4CF0895B2
:10026000CF93C62F18BA90916800953061F099230A
:1002700051F080E28BBB8C2F96DF8091680082303A
:1002800098F492E007C090E39BBB8DDF92E0915021
:10029000F1F7EFCF9150F1F780E48BBB8C2F829573
:1002A00086958770CF917FCFCF91089518BA90E44B
:1002B0009BBB79CF292F30E088BB2034310530F447
:1002C000611101C0411120642BBB7FCF8FEF0895D6
:1002D00088BB292F30E02032310548F4206A2BBB3F
:1002E00082E08150F1F7959870DF959A08958FEF2D
:1002F000089568BB272F30E02032310540F4206A92
:100300002BBB92E09150F1F795984DDF959A0895A7
:10031000CF93DF9390916500923031F09330A1F14B
:10032000913009F044C032C0C62FC078811111C08D
:1003300023DFD0E084E08150F1F747DF807890E060
:100340008C179D0719F008B601FEF4CFDF91CF910D
:1003500018CFD0E084E08150F1F737DF807890E06B
:100360008C179D07B9F733C08150F1F72EDFC82FE6
:10037000C07494E09150F1F728DF2C2F30E08074A6
:1003800090E02817390719F184E0EECF811104C0FD
:100390008EE68150F1F71BC023E33AE088E99AE347
:1003A0000197F1F73150D1F72150B9F710C0811101
:1003B00004C08CED8150F1F70AC025E63AE088E9E7
:1003C0009AE30197F1F73150D1F72150B9F7DF9156
:1003D000CF910895CF92DF92EF92FF920F931F93E8
:1003E000CF93DF93F82EE42ED22EEB01411101C002
:1003F0002111D06461E080E033DF00E010E089E0AB
:10040000C82E8091660090916700C89ED001C99E59
:10041000B00D1124A00FB11FFD01E652FF4FE49172
:10042000EBBBFD01E552FF4FE491E8BBFD01E45257
:10043000FF4F8491DADE0D5F1F4F0930110509F778
:100440006D2D8E2D0DDF0D2FDBBB1C2FC8BB8F2D0F
:10045000CCDEC0E0D0E0FE01ED51FF4FE491EBBBFC
:10046000FE01EC51FF4FE491E8BBFE01EB51FF4F61
:10047000849199DE2396C930D10569F70BBB18BB6F
:100480008F2D91DE80E0E3DE6D2D8E2DE9DE0BBB3E
:1004900018BB6F2D80E0DF91CF911F910F91FF90DE
:1004A000EF90DF90CF9034CF1F93CF93DF9361E035
:1004B00080E0D6DEC0E0D0E012E12091660030910D
:1004C0006700129FC001139F900D11248C0F9D1F78
:1004D000FC01EA54FF4FE491EBBBFC01E954FF4FF0
:1004E000E491E8BBFC01E854FF4F84917EDEFE01FD
:1004F000E853FF4FE491EBBBFE01E753FF4FE4915C
:10050000E8BBFE01E653FF4F84914DDE2396C231D6
:10051000D10599F66FEF81E0DF91CF911F91F8CE71
:100520001F93CF93DF9361E080E09ADEC0E0D0E0DC
:1005300019E02091660030916700129FC001139F5F
:10054000900D11248C0F9D1FFC01EC55FF4FE49181
:10055000EBBBFC01EB55FF4FE491E8BBFC01EA5516
:10056000FF4F849142DEFE01E355FF4FE491EBBB68
:10057000FE01E255FF4FE491E8BBFE01E155FF4F5C
:10058000849111DE2396C930D10599F6DF91CF9180
:100590001F9108951F93CF93DF93C0E0D0E019E03F
:1005A0002091660030916700129FC001139F900D4B
:1005B00011248C0F9D1FFC01EE56FF4FE491EBBB05
:1005C000FC01ED56FF4FE491E8BBFC01EC56FF4FF8
:1005D00084910BDEFE01E556FF4FE491EBBBFE017B
:1005E000E456FF4FE491E8BBFE01E356FF4F8491D0
:1005F000DADD2396C930D10599F6DF91CF911F91AD
:1006000022CE88E490E0FC01E759FF4F1082019769
:1006100081309105C1F785E5809369000895309197
:10062000F30040916000932F92959F70892790E08E
:10063000880F991FFC01EE5BFF4FE49150E1359F5D
:1006400090011124342F32953F70232B2E272093B5
:10065000F300FC01EE5DFF4F849190E1499FF001B2
:100660001124E827E09360000895FF920F931F93F1
:10067000CF93DF93109260001092F300C9E6D0E0B0
:10068000FC2E86E4F80EFE0181918F0182958F7019
:10069000C6DF88818F70C3DFE801F012F4CFDF91ED
:1006A000CF911F910F91FF900895DFDF9091AF00E0
:1006B0008091F30098130AC03091B00081E090E07F
:1006C00020916000321304C080E0089581E090E042
:1006D0000895CBDF8091F3008093AF00809160009C
:1006E0008093B0000895EF92FF920F931F93CF93E2
:1006F000DF93082FF62EE42ECFEFC80F9C2F9F77A5
:10070000211101C0C92F10E0D0E040DD8091F2003E
:100710008834A0F142DD80916900853539F5C5DF67
:10072000892B21F580916A00813039F080916A002F
:10073000823019F08FE01CDD25C080916C00081319
:100740000AC080916D00F812F5CF80916E00E8121A
:10075000F1CF80E018C080916C00C813EBCF1F5F11
:10076000143640F71092F2008AEA06C0DF5FD436F2
:1007700008F71092F20080EFFBDCC7CF08B606FE48
:10078000C5CF0BDD81E0DF91CF911F910F91FF90DD
:10079000EF9008952F923F924F925F926F927F92C7
:1007A0008F929F92AF92BF92CF92DF92EF92FF9281
:1007B0000F931F93CF93DF9300D000D0CDB7DEB758
:1007C000582E25DD552019F080E041DD03C081E081
:1007D0003EDD31DD8091630090E0382F222780914B
:1007E0006400A901480F511D5C834B834F3F5F4F4D
:1007F00021F4AEEFBFEFBC83AB83511003C09FE782
:10080000E92E02C0EE24EA94109262001092F200E7
:100810008AEAAEDC00E010E081EB90E088249924C5
:10082000881A990A29E630E050E4520F598350E4BF
:10083000580F5A83F12C81E0581611F0802F36DDC5
:10084000412E5401C12CD12C302E252D432D642D49
:100850008C2D49DF8823B9F00F900F900F900F90E7
:10086000DF91CF911F910F91FF90EF90DF90CF908C
:10087000BF90AF909F908F907F906F905F904F90C0
:100880003F902F90E0CC21EB30E0E9E6F0E086816C
:10089000D9018D939D01319659815E13F8CF209037
:1008A0006A001092F2008AEA63DC81EB682E80E035
:1008B000782EB3016A0D7B1D552031F0232D442D78
:1008C000D3018C9187DD03C0F301808112DDFFEF3E
:1008D0006F1A7F0A5A815611ECCF82E0281609F46C
:1008E000BBCF9FEFC91AD90AA0E4AA0EB11CEC1421
:1008F000FD0408F0AACF0F5F1F4FEB81FC81E017CA
:10090000F10708F098CFA8CF0F931F93CF93DF93F1
:10091000E0DE10926100C9E089E690E0D8E4D80FEB
:10092000E9E6F0E08F010F5F1F4F808121DCF801C5
:10093000D013F8CF2BDC80916100882359F02DDC97
:100940008091F1008F3079F08091F1008A3A39F48A
:1009500080E00AC008B606FEEECF1FDC04C010928D
:100960006100C150E9F681E0DF91CF911F910F91B5
:1009700008952F923F924F925F926F927F928F9243
:100980009F92AF92BF92CF92DF92EF92FF920F931E
:100990001F93CF93DF93582E3ADC552019F080E057
:1009A00056DC03C081E053DC46DCC0916300D0E03C
:1009B000DC2FCC2780916400C80FD11DCF3F8FEF73
:1009C000D80711F4CEEFDFEF511002C02FE701C0BE
:1009D0002FEF81E08093620000E010E089E690E074
:1009E00088249924881A990AE22EF12C90E4292E61
:1009F000280E552021F0602F812F32DC02C0802F7D
:100A000055DC312E5401C12CD12C402EFADD0C17AF
:100A10001D0729F4CE14DF0411F482E001C081E047
:100A200080936A00C0926C0030926D0040926E001C
:100A300089E6682E80E0782EC3018A0D9B1D552023
:100A400021F0442D632D36DC01C042DCF3018683A6
:100A5000FFEF6F1A7F0A2610EFCF56DF8823B1F021
:100A600081E0581621F1DF91CF911F910F91FF90F6
:100A7000EF90DF90CF90BF90AF909F908F907F903E
:100A80006F905F904F903F902F90DDCBEFEFCE1A9D
:100A9000DE0AF0E4AF0EB11CEC14FD0408F0B6CF92
:100AA0000F5F1F4FC017D10708F0A3CFD9CFDF9139
:100AB000CF911F910F91FF90EF90DF90CF90BF905B
:100AC000AF909F908F907F906F905F904F903F90EE
:100AD0002F90089580916C008093680080916D0044
:100AE0008170809366001092670080916E00809301
:100AF000650080916F008093630080917000809307
:100B0000640080916B00813039F050F0823031F018
:100B1000833041F480E003C080E003C081E03ACE3E
:100B200081E027CF80EF24CB0F931F93CF93DF93E8
:100B30006EDB80916C008093680080916B0088234D
:100B4000E1F081E084DB77DB80916D00C0E0D0E0F4
:100B50008C2FACDB00E010E0B80180E0CADB0F5F57
:100B60001F4F011580E21807B9F7219680916D009B
:100B700090E08C179D0760F70CC080916D0081702C
:100B8000809366001092670080916E0080936500EC
:100B90008BDC59DB8AEADF91CF911F910F91E8CA74
:100BA0000F931F93CF93DF9380916B00813069F493
:100BB00080916C008093680080916D0081708093BB
:100BC000660010926700C1E001C0C0E01ADDCC23CE
:100BD00009F43DC01CDB81E080937100C4E0D1E0EA
:100BE00040E060E0CE0166DBFE01E25AF040E491B5
:100BF0008E13109271002196C43381E0D80781F7DB
:100C00008E01025C104040E060E0CE0153DBF80151
:100C100080832196C035F1E0DF0791F784E08150B1
:100C2000F1F77EDC8CED8150F1F718BA1BBACDDA02
:100C300080936D0081E088BB1BBAC7DA80936E0099
:100C400082E088BB1BBAC1DA80936F00A3DC80E12D
:100C500080936B0080936C003CDDE9E6F0E0C8E433
:100C6000CE0F8F010F5F1F4F808182DAF801C01312
:100C7000F8CFDF91CF911F910F9108951BBA8FEF9D
:100C80008ABB18BA87BB14BA85BB82BB8EEF81BB07
:100C900085E087B992E096B985B18570813011F40D
:100CA00099B908C085B18570843011F419B802C0B3
:100CB00083E089B916B887E087B984E48BBD8AEAF6
:100CC0008ABD80E888B988E98AB978949298809139
:100CD000F2008823E1F35ADA08B606FE04C05DDAB2
:100CE0001092F200F4CF8091F2008834A8F355DA24
:100CF00080916900853589F4D8DC892B71F4809165
:100D00006A00833031F0843031F0811106C0E2DEB8
:100D100006C00ADF04C044DF02C080EF29DA109267
:0E0D2000F2001092620083DAD2CFF894FFCF77
:00000001FF
